:020000040800F2
:10000000280B002089020008FD2F0008952D00080C
:10001000712E0008191E000881330008000000003E
:100020000000000000000000000000000130000897
:100030001B1E000800000000FF2F0008033000080E
:10004000A3020008A3020008A3020008A3020008FC
:10005000A3020008A3020008A3020008A3020008EC
:10006000A3020008A3020008A3020008A3020008DC
:10007000A3020008A3020008A3020008A3020008CC
:10008000A3020008A3020008A3020008A3020008BC
:10009000A3020008A3020008A3020008A3020008AC
:1000A000A3020008A3020008A3020008A30200089C
:1000B000A3020008A3020008A3020008A30200088C
:1000C000A3020008A3020008A3020008A30200087C
:1000D000A30200085D33000875330008A30200087E
:1000E0001D1E0008A3020008A3020008A3020008C6
:1000F000A3020008A3020008A3020008A30200084C
:10010000A3020008A3020008A3020008A30200083B
:10011000A3020008A3020008A3020008A30200082B
:10012000A3020008A3020008A3020008A30200081B
:10013000A30200080000000000000000A302000865
:10014000A3020008A3020008A3020008A3020008FB
:10015000A3020008A3020008A3020008A3020008EB
:10016000A3020008A3020008A3020008A3020008DB
:10017000A3020008A3020008A30200080000000078
:1001800000000000A30200080000000000000000C2
:10019000A30200080000000000000000A302000805
:1001A000000000000000000000000000A3020008A2
:1001B000A3020008A3020008A3020008A30200088B
:1001C000A302000800F002F800F04FF80AA090E83F
:1001D000000C82448344AAF10107DA4501D100F002
:1001E00044F8AFF2090EBAE80F0013F0010F18BF80
:1001F000FB1A43F001031847A8410000C841000062
:10020000103A24BF78C878C1FAD8520724BF30C842
:1002100030C144BF04680C60704700000023002414
:1002200000250026103A28BF78C1FBD8520728BF06
:1002300030C148BF0B607047732900F05A8200201C
:1002400070471FB503F0CAFF00F00AFD040000204C
:10025000002103F07FFA401C60600020002103F0C1
:1002600063FAE0601FBD10B510BD00F03BFF114602
:10027000FFF7E7FF03F0FEF901F098F903B4FFF789
:10028000F2FF03BC01F0FEF9094880470948004726
:10029000FEE7FEE7FEE7FEE7FEE7FEE7FEE7FEE736
:1002A000FEE7FEE704480549054A064B7047000093
:1002B000A9300008C501000828050020280B0020EF
:1002C000280700202807002053EA020C00F069806C
:1002D0002DE9F04B4FF00006002B1FBFB3FA83F55A
:1002E00003FA05F424FA05F65E4012BF1643B2FA8B
:1002F00082F502FA05F4C5F120051EBF22FA05FCBD
:1003000044EA0C04203556EA044C4FEA144418BF62
:10031000641C4FF000084FF00009904271EB030C91
:1003200039D3002919BFB1FA81F701FA07F6B0FAFB
:1003300080F700FA07F6C7F120071EBF20FA07FC76
:1003400046EA0C062037B6FBF4FCA7EB0507103F86
:1003500007F01F0BCBF120060CFA0BFB2CFA06F66C
:1003600044BFB3460026202FA4BF5E464FF0000BCB
:100370005BEA060C08BF4FF0010B19EB0B09ABFB56
:10038000027C48EB0608C01B06FB02CC0BFB03CC2F
:1003900071EB0C01C1E70B46024641464846BDE8F9
:1003A000F08B13B54FF000004FF00001AFF3008069
:1003B000BDE81C40704700000FB41CB5074B06AAEF
:1003C0007B4469460090059800F069F90020694671
:1003D00000F078F91CBC5DF814FB0000010300007C
:1003E0002DE9F0410E460446002020622046E168D7
:1003F000884730B3252805D0D4E901219047206AE9
:10040000401CF2E7E168204600278847050018D025
:10041000A5F14100192802D820354FF40067324673
:10042000294620462760FFF707FF40B1012804D086
:10043000F61D26F007060836D8E7361DD6E728460B
:10044000DAE7206ABDE8F08170B50C460546012A5E
:1004500005D02878800600D5EA69002302E0012350
:1004600005E05B1C934202D2E05C0028F9D1A86948
:10047000E618C01AA861286A184428622846AFF313
:10048000008004E0D5E9012114F8010B9047B44243
:10049000F8D32846AFF3008070BD00000FB400B55C
:1004A0008DB010A9099000910B904FF0FF300A9089
:1004B00000200C90064878440690064878446A4626
:1004C00007900F9909A800F09BFB0DB05DF814FB95
:1004D000670700007F0700002DE9FF5F4FF000086D
:1004E0009946144646469169D2E901A7DDF838B02D
:1004F00001988847054659EA0B0005D009E0A16933
:100500000198761C88470546216A284688470028B6
:10051000F5D1681C03D05FEACA7005D015E04FF032
:10052000FF3004B0BDE8F09F2068011D2160D0F8C5
:1005300000800AE05FEACA7001D108F8015BA16996
:10054000761C01987F1E88470546002F1ADD681C1F
:1005500018D0B9F1000F0DD0E81705EBD0604211AB
:1005600020F01F0059F822102A1A01209040014261
:10057000E0D107E0BBF1000FDCD12846216A8847B3
:100580000028D7D0E16901988847BBF1000F07D157
:10059000002E05DD5FEACA7002D1002188F8001044
:1005A000A068B84203DDBBF1000F03D017B16FF0B4
:1005B0000100B6E73046B4E730B505460B462A469B
:1005C00013F8014B12F8010B08B1A042F8D01CB18E
:1005D000002802D06D1CF1E7284630BD10B5203A46
:1005E000C0F00B80B1E81850203AA0E81850B1E8EC
:1005F0001850A0E81850BFF4F5AF5FEA027C24BFA2
:10060000B1E81850A0E8185044BF18C918C0BDE898
:1006100010405FEA827C24BF51F8043B40F8043B61
:1006200008BF7047D20728BF31F8023B48BF11F816
:10063000012B28BF20F8023B48BF00F8012B704770
:100640004FF0000200B5134694469646203922BF6B
:10065000A0E80C50A0E80C50B1F12001BFF4F7AFB6
:10066000090728BFA0E80C5048BF0CC05DF804EB98
:10067000890028BF40F8042B08BF704748BF20F806
:10068000022B11F0804F18BF00F8012B7047704704
:100690007047704701694A1C02610878704700B5CD
:1006A0008FB0CDE901310021059105497944CDE9AB
:1006B000031011466846FFF793FE0FB000BD00001F
:1006C000E5FFFFFF0A6802F8010B0A60704710B5EA
:1006D000436913B1AFF3008001E0FFF7B5FE0120DD
:1006E00010BD127800F124010A7000224A70012224
:1006F000EDE711684FF0FF32E9E700002DE9FF4F09
:1007000006468BB00878FF2806D0491C2D2805D056
:1007100000244FF0000908E000200CE00124F8E775
:1007200009EB8903491C00EB43090878FF28F7D13E
:1007300014B1C9F100008146107800252C46AA4664
:1007400029462D2801D02B2804D1521C2D2813D046
:10075000002082468B461078FF280FD04FF0000C07
:100760000A21521CA5FB017804FB018105FB0C1139
:10077000C5194BEB0104EEE70120EAE7002108462A
:100780004FF00000BAF1000F02D000EB80004008EB
:10079000C0F38157012F01DD4FF0FF370E9955EA65
:1007A000040009EB01080BD04FF0020918F5FA7F9D
:1007B00016DA4FEACA70002F706008DD012007E0EA
:1007C0004FEACA70C6E900B00FB0BDE8F08F002054
:1007D000306000F049FAC0F800901821084616E091
:1007E000B8F5FA7F18DD002F02DAF748784401E007
:1007F000F6487844D0E90010C6E9001040EACA7013
:10080000706000F031FAC0F80090142108460FB073
:10081000BDE8F04F03F0ECBC002108464FF00000AB
:10082000B8F10001099002DAC7F1000200E03A468F
:1008300001DAC8F1000106A800F0DEFB06AB93E880
:10084000070003AB83E8070044F23E005BEA0401C3
:100850000090584604D144F21E012C465D4600919A
:10086000210C0904014306D10099240444EA1544EB
:100870002D041039009104F07F41014306D1009905
:10088000240244EA15642D020839009104F07041F5
:10089000014306D10099240144EA15742D01091F72
:1008A000009104F04041014306D10099A40044EABC
:1008B0009574AD00891E009104F00041084304D1F5
:1008C00000986D196441401E00904FF001033A46B4
:1008D0006846B8F1000FCDE9014503A902DD01F03A
:1008E00064F901E001F037F9BAF1000F04460D4652
:1008F00001D084F00044002108464FF0000009991F
:1009000040F2FF77484010F00C0F07D124F0004070
:10091000284303D0C4F30A50B84212D100F0A4F91E
:10092000C0F80090C4F30A50B8420AD1A8487844ED
:10093000D0E90010C6E9001004F0004108437060DF
:1009400042E7C6E900543FE72DE9FF4F1F464FF04D
:10095000000A4FF0FF38454691B0D7E90146CDF87F
:100960003CA000F07DF9C0680168405C1090B96956
:1009700012986D1C8847396A814688470028F6D14D
:10098000B9F1FF3F0AD0002E24F4D06411DDB9F193
:100990002B0F08D0B9F12D0F0BD102E0404615B056
:1009A00013E744F48064B96912986D1C8847761E79
:1009B0008146600504A901D52D2000E02B20002EE2
:1009C00001F1010B0DF130088DF810003FDDB9F198
:1009D000690F08D0B9F1490F05D0B9F16E0F02D0F7
:1009E000B9F14E0F1CD13B4601A8009580E850029A
:1009F000DDE912126FF0020003F061FCC11CCED1E0
:100A00000EE0B96912986D1C884781461398761ECE
:100A100044F4007405600F98401C002E0F9016DD02
:100A2000B9F1300FEDD0B9F1780F02D0B9F1580F0C
:100A30000DD10F9801280AD13B46CDE90054DDE9DC
:100A40001212001F029603F038FCC11CA7D11099A6
:100A500089453ED144F0800406E01399681CAAF150
:100A6000010A44F400740860B9696D1C1298761E7E
:100A7000884730288146F0D02BE01099894505D170
:100A8000200603D4761E44F0800418E0484602F0A5
:100A9000A2FD08B3761E0DF123018B4544F40074CA
:100AA00008D2A9F130000BF8010B200607D5AAF1F6
:100AB000010003E0200602D40AF101008246A005ED
:100AC00002D51399681C0860B96912986D1C884793
:100AD0008146002ED1DC53E0002E51DDB9F1650FC7
:100AE00002D0B9F1450F4BD1A00549D5B9696D1CAC
:100AF0001298761E24F440748847002E81460CDD3F
:100B00002B2804D0B9F12D0F07D144F48074B969B2
:100B100012986D1C8847761E8146E00501D52D216F
:100B200000E02B2108F8011BCDF8008021E0761EA3
:100B30000DF13901884544F400740CD2A9F130005C
:100B400010F0FF0088F8000002D10099884509D90B
:100B500008F1010806E0E00501D51E4801E042F277
:100B60000F708246B96912986D1C884781461398A8
:100B70000560002E04DD484602F02DFD0028D6D188
:100B8000F96912988847FF2053468BF8000088F8CF
:100B9000000000200A900B9004AA0CA90AA8FFF7F5
:100BA000ADFDA00502D46FF00100F8E614F0240FAB
:100BB00012D0E0071CD13868DDE90A12031D3B6042
:100BC0000068C0E9001213E0D83B0000CA3B0000F7
:100BD0008E3A0000F1D8FFFF0AA9684602F0E8FC4F
:100BE000E00705D13868009A011D3960006802608D
:100BF0002846D4E60268114413780160184670470D
:100C0000D160054979445161044979441162002158
:100C10001161114600F036B8EDFFFFFF63000000E0
:100C2000426842B1016811F8013B23B1521EC0E98C
:100C30000012184670470121C160881E7047426843
:100C40005AB1C368016843B983688B4205D0491E15
:100C5000521CC0E90012002070474FF0FF3070476F
:100C600000487047E804002000487047C80400208E
:100C700010B5044600F05CFA0068005D00F0010069
:100C800010BD00002DE9F34F4FF0000A0C46564608
:100C90008DB001200C9001F10C000B9062690B9853
:100CA00001219047051E2DD0252D2CD0216A884783
:100CB000C0B162690B9801219047216A88470028DA
:100CC000F7D16269411E0B98904700E0761CA1693C
:100CD0000D988847216A88470028F7D1E1690D9867
:100CE0008847DBE7A1690D988847A842074601D1EC
:100CF000761CD3E7E1690D9888477F1C02D1BAF1D1
:100D0000000F6FD06CE162690B9800273D463946B1
:100D100090472A2804D162690B9801219047012548
:100D2000DFF8D08262690B9801219047A0F1300171
:100D30000A290AD24745E5DC07EB870100EB4107AA
:100D4000303FDFD445F01005ECE7E90601D46FF041
:100D500000476C280AD04C2814D0682815D06A287F
:100D60000DD074281CD07A281AD01DE062690B9827
:100D7000012190476C2802D045F0040514E045F0AD
:100D800002050DE045F020050AE062690B9801219B
:100D90009047682802D045F0080505E045F4006555
:100DA00062690B9801219047C4E9015765283DD03D
:100DB00019DC58287AD00CDC452837D004DC2528EB
:100DC00026D041289ED131E046282FD0472899D1FE
:100DD0002CE05B2877D0612828D063287CD0642859
:100DE00023D15AE0F7E06F2848D008DC66281DD0F0
:100DF00067281BD0692821D06E2816D127E07028DB
:100E000045D0732868D0752847D078280DD14DE09B
:100E1000A1690D988847252805463FF469AFE16927
:100E20000D9888476D1C3FF46AAFD9E00D992346B1
:100E30006A466FF0010003F03EFAC6E045F040005C
:100E400023464FF000026060A80736D43EE0E80772
:100E50007FF447AF2068011D21600068290501D596
:100E600006701BE7290701D5068017E7A90703D5F8
:100E7000F117C0E9006111E706600FE745F0400097
:100E800023464FF008026060A80716D41EE040F623
:100E90000E0125EA0100606016E045F0400023469F
:100EA0004FF00A026060A80707D40FE045F0400049
:100EB0006060A80708D5234610220D996FF0010045
:100EC000AFF3008081E007E0102223460D996FF018
:100ED0000100AFF3008078E04FF0000963284F462F
:100EE000C8464B46CB4602D05B2807D039E0207974
:100EF000C00601D40120A060012732E06269D4F865
:100F00000CB00B98012190475E2807D14FF00109E2
:100F100049466269D4F80CB00B989047216939B9F9
:100F200000210A4603AB43F82120491C0829FADBBB
:100F3000D8B3216949B308F1010862690B9801210E
:100F400090475D28F4D1B9F1000F09D0002003A922
:100F500051F82020D24341F82020401C0828F7DB1C
:100F600003AB2069002820794FEA40701ED05B4611
:100F70002246CDF80080CDE901970D9900286FF049
:100F8000010020DAAFF300801FE0C11703AA00EBD5
:100F9000D1614B1121F01F0102EB8302411A13684A
:100FA0000120884003431360C7E719E00D992246EA
:100FB00000286FF00100009702DAAFF3008004E030
:100FC000FFF78AFA01E0AFF3008000280ADA401C3C
:100FD00006D10C9820B14FF0FF300FB0BDE8F08F74
:100FE0005046FAE7E90701D10AF1010A0644002058
:100FF0000C9053E6CCCCCC0C2DE9F047814616463C
:101000008AB0354878440DC88DE80D0032487844E0
:10101000801C03AC0DC884E80D0041F69B300844E9
:10102000372190FBF1F290FBF1F5A5F1800501FB72
:1010300012041B3C02D56442012000E00020DFF8CE
:1010400098A080460027FA44AAF1BE0A0EE0E00705
:101050000AD03246684607EB470101230AEB8101BB
:1010600000F08EFD8DE8070064107F1C002CEED18F
:10107000194F7F44AE3F19E0E80715D007EB041085
:101080000DF1180A90E80E008AE80E00C068F042E0
:1010900001D1981908903246012306A903A800F04F
:1010A0006FFD03AB83E807006D10641C002DE3D1D6
:1010B0004FF0010332466946B8F1000F03A802D091
:1010C00000F034FD01E000F05BFDC9E90001C9F862
:1010D00008200AB0BDE8F087803300000048704760
:1010E000C80400207546FFF7F9FFAE4605006946C3
:1010F000534620F00700854618B020B5FFF7D2F818
:10110000BDE820404FF000064FF000074FF0000808
:101110004FF0000B21F00701AC46ACE8C009ACE889
:10112000C009ACE8C009ACE8C0098D4670470000B2
:1011300010B5FFF795FD001D10BD00BF192600007A
:1011400010B5FFF791FD006810BD10B50446FFF71C
:101150008BFD046010BD00002DE9FF4F1F464FF0CE
:101160003C0987B04FF00042DDE9141001F101089D
:10117000DDF858A002EA4050039000200590834615
:10118000054604460490B969461E08988847AAF1A6
:10119000010A0290BAF1000F3BDD02982E2815D00B
:1011A000102100F060FA00282EDB4FF0010B0599AA
:1011B000014317D0B9F1000F0BDB4A46C11700F00D
:1011C0003FFA05430C43A9F1040905E0012004900E
:1011D0000BE008B145F0010501200590049820B905
:1011E000361D02E0049800B1361FB969089808F16D
:1011F00001088847BBF1000FAAF1010A0290C9D08B
:101200000999C1F80080C5E70298702808D05028D5
:1012100006D0F96908988847BBF1000F14D04FE059
:10122000002002900120BBF1000F049009D0B969A1
:10123000089808F101088847AAF10109B9F1000FDF
:1012400007DCF969089888476FF001000BB0BDE82A
:10125000F08F2B2804D02D280CD14FF0FF300490B4
:10126000B969089808F101088847A9F10109B9F19D
:10127000000FE6DD411CE4D00A2100F0F4F900285B
:10128000DFDB029908F1010801EB810100EB41006D
:101290000290B969089888470A2100F0E4F9099A90
:1012A000A9F10109B9F1000FC2F8008001DD0028A1
:1012B000E7DAF969089888470499029800FB016603
:1012C00055EA040004D004F04041090002D006E0D1
:1012D000039898E0A40044EA9574AD00B61E04F0AB
:1012E0000041080002D16D196441761E159810F076
:1012F000240F03D04FF00B095C4803E04FF028099E
:101300006FF07D008246564507DAAAEB0601894454
:10131000B9F1410F01DD4FF0410901200021A9F190
:10132000010200F08DF9024628400B462140084397
:1013300001D0012100E00021501E029143F1FF3154
:1013400028402140084301D0012000E000200299FC
:10135000834651EA0B014FD0002108464FF00000B0
:10136000039900F4400039B100EB80004FF44001D4
:1013700000EBD07001EA60008015012802DD4FF01B
:10138000FF3000E013D0401C36D0029860B3BBF1B0
:10139000000F0CD14A460120002100F051F92840ED
:1013A0002140084301D0012000E00020E0B10120ED
:1013B0004A46002100F044F9034640190A466141BB
:1013C0002D1A8C4111D3B9F1400F09DD159810F099
:1013D000240F02D0AAF1340603E0AAF1170600E0B8
:1013E000761C00254FF0004406E05B1E42F1FF3200
:1013F00020EA030521EA0204CAF10100B04206DA3C
:101400001B49039808430190002000900EE0039AC6
:10141000C4F3D321E80A0A43164940EA44500A4378
:101420003146CDE90002684602F0CBF8159810F07D
:10143000240F0BD01598C00715D13868DDE90012CC
:10144000031D3B600068C0E900120CE002A8694679
:1014500002F0AEF81598C00705D13868029A011D50
:101460003960006802604046F0E6000002FCFFFFC1
:101470000000F07F0000F03F2DE9FF4F92461D462F
:1014800085B04FF00041DDE9124BDDE914727F1E9B
:1014900001EA4B50414940F0FF4940EA0108002170
:1014A00022F020004928049102D04E2828D04CE098
:1014B0003BA0012607C88DE80700A9690698641CAF
:1014C00088477F1E014606D41DF8060018B121F09A
:1014D000200181420BD0E96906988847032E34D059
:1014E000082E32D06FF0010009B0BDE8F08F761CF5
:1014F000032E01D0082EE0D1601CCAF80000DCE702
:10150000A9690698641C88477F1E2AD420F0200011
:10151000412826D1A9690698641C88477F1E20D4DB
:1015200020F020004E281CD1A9690698641C884729
:101530007F1E48F4002849F48009CAF8004001D40D
:10154000282806D0E969069888475FEACB7012D050
:1015500022E0A9690698641C88477F1E01D40028F0
:1015600003DAE96906988847BCE72928F1D1641CA9
:10157000CAF80040E9E71BF0240F07D02868049957
:10158000031D2B600068C0E9001805E02868021DF3
:101590002A600068C0F800902046A5E70000F07FB0
:1015A000494E46494E4954590000000010B50446C2
:1015B000AFF300802046BDE81040FEF75FBE00009C
:1015C0004FF0013C50F8042B51F8043B9A4221D1D2
:1015D000A2EB0C03934313EACC1317D150F8042B5E
:1015E00051F8043B9A4215D1A2EB0C03934313EA42
:1015F000CC130BD150F8042B51F8043B9A4209D17B
:10160000A2EB0C03934313EACC13DBD04FF00000A2
:10161000704700BFD01A01BAB1FA81F101F0180188
:1016200022FA01F0CB40C1F12001DBB2C0B2C01AF6
:101630002CFA01F3D11A914311EAC311E6D1704794
:10164000B2F120030AD5C2F1200301FA02F120FA17
:1016500003F300FA02F041EA0301704700FA03F1D4
:101660004FF0000070473A2800D2303820F02002B6
:10167000412A01D3A2F13700884201D34FF0FF3055
:101680007047000001491820ABBEFEE726000200AB
:10169000704720F07F4C80EA030023F07F47ACEBDB
:1016A000070303F57C5300F0004003F1FF032DE92D
:1016B00080494FEA154B09B44FEA144325EA0B4E13
:1016C00024EA03480FF2042606EB132749083E7864
:1016D0005FEA320203FB0667C7F5000707FB06F661
:1016E0004FEA54374FEAD64606F1020607FB066C6E
:1016F000CCF1005C4FEA1C472CEA074C07FB06F4D0
:101700000CFB06F504EB15464FEA961634BF002095
:101710004FF000404FEAD13706FB07FC4FEA1C4C64
:101720000CFB0BF7D21B03FB0CF761EB07010CFB67
:101730000EF7B0EB074072EB17420CFB08F734BF13
:10174000A2EB0742B2EB074261EB17414FEA0C44B0
:101750004FEA910706FB07FC4FEA1C4C0CFB0BF70A
:10176000B0EBC74072EB573203FB0CF734BFA2EB70
:10177000C742B2EBC74261EB57310CFB0EF7B0EB3F
:10178000C70072EB57720CFB08F734BFA2EBC7021D
:10179000B2EBC70261EB5771039F4FEA816141EAE7
:1017A000921104EBCC044FEAD1374FEA826206FB78
:1017B00007FC42EA90124FEA80604FEA1C4C0CFB97
:1017C0000BF7D21B03FB0CF761EB07010CFB0EF7C9
:1017D000B0EB074072EB17420CFB08F734BFA2EBEB
:1017E0000742B2EB074261EB17414FEA8C554FEAD3
:1017F000910704EB9C2406FB07FC4FEA1C4C0CFBF6
:101800000BF7B0EBC74072EB573203FB0CF734BF5A
:10181000A2EBC742B2EBC74261EB57310CFB0EF7AC
:10182000B0EBC70072EB57720CFB08F734BFA2EBAA
:10183000C702B2EBC70261EB577115EB4C254FEABB
:10184000816141EA92114FEA82624FEAD13742EA5E
:10185000901206FB07FC44F100044FEA80604FEA57
:101860001C4C0CFB0BF7D21B03FB0CF761EB0701C5
:101870000CFB0EF7B0EB074072EB17420CFB08F7BE
:1018800034BFA2EB0742B2EB074261EB174115EB05
:101890001C154FEA813141EA92414FEA823242EA15
:1018A00090424FEA80304FEA0C7644F1000448EA57
:1018B00003434EEA0B484FF0000EB2EB080C71EBFD
:1018C000030724BF624639464EEB0E0E4FF0000B65
:1018D0000018524149414BEB0B0BB2EB080C71EB7A
:1018E00003077BF1000B24BF624639464EEB0E0E18
:1018F0004FF0000B0018524149414BEB0B0BB2EB80
:10190000080C71EB03077BF1000B24BF62463946DC
:101910004EEB0E0E51EA020718BF46F0010616EB19
:101920000E7655F1000254F1000103D5BDE889019E
:10193000BDE80088BDE88901BDE80048B6195241FC
:1019400041EB0101A3F10103704780807F7E7D7C24
:101950007B7A7978777676757473727171706F6E41
:101960006E6D6C6C6B6A6A696868676666656464EC
:10197000636362616160605F5F5E5E5D5D5C5C5B76
:101980005B5A5A59595858575756565555555454E5
:10199000535352525251515050504F4F4F4E4E4D43
:1019A0004D4D4C4C4C4B4B4B4A4A4A49494948488F
:1019B00048474747474646464545454444444443CF
:1019C00043434342424242414141000046EA064607
:1019D000A3F570534FEA164646EA42564FEAD22222
:1019E00042EA415210B54FEAD121A3F1010300F0C0
:1019F0002FF820F0004000F1020C00F0004701EB4E
:101A000000501146BCF5006F40EA070000D210BD3F
:101A1000BAF1000F0AD01CB503B44FF004004FF028
:101A200004014FF000000FBCBDE810404FF0000172
:101A3000BBF1010FB9BF04484FF0FF31034800214B
:101A400040EA070010BD00BFFFFFEF7F0000F07FFE
:101A5000002B9C4630D477002BD01CB54FEA3707BB
:101A600003B44FF010004FF01001BAF1000F06D090
:101A7000BCF1000FDCBF40F0080040F008014FF05F
:101A800000000FBCBDE810400BF1010BBBF1010FD2
:101A900008BF5FEA170722BF12F1010211F101012D
:101AA0004FF0004143F1000300F0004043EA000022
:101AB0007047F9D35708D0E746EA064613F1400FBE
:101AC0004FEA16461FDD13F1200FDFBF16430A460B
:101AD000002120335B42BED0C3F1200746EA064610
:101AE00002FA07F74FEA164646EA0706C3F120074F
:101AF00022FA03F201FA07F721FA03F14FF000038B
:101B000042EA0702A7E746EA020646EA06464FEA25
:101B1000164646EA0106BCBF46EA0646360C4FF0BA
:101B200000034FF000024FF0000194E72DE9804CD4
:101B30009A46934670B491E8380007C831EA400CE1
:101B400048BF34EA430C03D5FFF7A3FDFFF780FF3E
:101B5000F0BCBDE8008C2DE9804C9A46934670B4E9
:101B600091E8380007C831EA400C48BF34EA430C1A
:101B700003D5FFF78EFDFFF729FFF0BCBDE8008C11
:101B80002DE9804C9A46934670B491E8380007C816
:101B900010F0804F08BF13F0804F03D100F01AF807
:101BA000FFF756FFF0BCBDE8008C2DE9804C9A464B
:101BB000934670B491E8380007C810F0804F08BF12
:101BC00013F0804F03D100F005F8FFF7FFFEF0BCE3
:101BD000BDE8008C20F07F4780EA030023F07F4CB3
:101BE00007EB0C03A3F57C5300F00040A3F1FE03C8
:101BF00092F0000F00F0B38095F0000F00F07780B6
:101C00002DE901494FEA11404FEA144621EA004804
:101C100000FB06FC24EA064708FB06F607FB08F86B
:101C200000FB07F718EB06484CEB164C4FEA124B3B
:101C300018EB07484FEA15464CEB174022EA0B4ECB
:101C40000BFB06FC25EA06470EFB06F607FB0EFE1D
:101C50000BFB07F71EEB064E4CEB164C4FF0000645
:101C60001EEB074E4CEB174B18EB0B0840F1000036
:101C700018EB0E0B58EB000840F100008F1A4FF0E4
:101C800000013CBFC943661B14BFB5EB040C002127
:101C90003CBFC943F61B4FEA17444EEA8E0E27EAB3
:101CA00004454FEA1C4704FB07622CEA074C05FB7E
:101CB00007F70CFB05F604FB0CFC16EB074642EBA2
:101CC000174216EB0C4642EB1C421BEB060658EB88
:101CD0000202414146EA9E0601D5BDE80189B619D6
:101CE000524141EB0101A3F10103BDE801894FEA33
:101CF00014454FEA114724EA054621EA074C05FB43
:101D000007F406FB07F70CFB06F105FB0CFC11EBD7
:101D1000074144EB17444FEA124711EB0C4144EBE7
:101D20001C4422EA074C05FB07F206FB07F70CFBF5
:101D300006F605FB0CFC16EB074642EB174216EBCA
:101D40000C4642EB1C456A1854F1000148BF70472D
:101D5000B619524141EB0101A3F10103704795F01F
:101D6000000F37D04FEA11424FEA144721EA0246EA
:101D700024EA074C02FB07F106FB07F70CFB06F40D
:101D800002FB0CFC14EB074441EB17414FEA1547EB
:101D900014EB0C4441EB1C4125EA074C02FB07F510
:101DA00006FB07F70CFB06F602FB0CFC16EB0746DE
:101DB00045EB174516EB0C4645EB1C42121951F149
:101DC000000148BF7047B619524141EB0101A3F130
:101DD000010370474FEA14454FEA114724EA0546CC
:101DE00021EA074C05FB07F106FB07F70CFB06F29F
:101DF0004FF0000605FB0CFC12EB074241EB1741CC
:101E000012EB0C4251EB1C4148BF7047921841EB5A
:101E10000101A3F101037047FEE770474FF4005042
:101E200000F0C8B870B5254D044686B02868012872
:101E300041D1831E04F12A014FF42F720E4604F59E
:101E4000787000F045FF1EA13046FEF7B5FB014655
:101E50000078472827D1002003E02318401C83F88E
:101E60007C230A5C0A2AF8D104F5467004F55F72F7
:101E700015A10646FEF7A0FA0DF1040C04F12003AB
:101E800004F1180204F1290104F110008CE80F009C
:101E900018300090183B22460DA13046FEF7FEFA9E
:101EA000204600F0E7FFD4F8E003C16841F02001CC
:101EB000C1600020286006B070BD00000000002056
:101EC0004750524D4300000025730D0A0A000000E0
:101ED0004750524D432C256C662C412C256C662CAA
:101EE00025632C256C662C25632C256C662C2C25F3
:101EF0006C662C2C2C412A36340000002DE9F04170
:101F00000446876D00F05AF9064694F8350000251E
:101F1000022806D08020606584F834500120BDE896
:101F2000F0812068016821F0160101602068416994
:101F300021F080014161206C08B9A06C20B12068BB
:101F4000016821F0080101602068016821F00101A9
:101F500001600CE000F032F9801B052807D9202031
:101F60006065032084F8350084F83450D7E7206892
:101F70000068C007EED194F85C103F208840B8603C
:101F8000012084F8350084F834500020C7E790F829
:101F90003510022903D080214165012070470521B9
:101FA00080F835100068016821F00101016000200F
:101FB00070477047044910B50A68024202D00860B1
:101FC000FFF7F7FF10BD0000143C01402DE9F84F6A
:101FD000DFF8ACA1002201240AF1040B03254FF025
:101FE0000F090BF1040E00BF0B6804FA02F6334030
:101FF000B3426ED10F7907F00307012F01D0022FF2
:1020000016D187684FEA420805FA08FC27EA0C0750
:10201000D1F80CC00CFA08FC4CEA070CC0F808C058
:102020004768B7430E79C6F3001696403E434660B4
:102030000E79F643B6070AD0C6684FEA420C05FA95
:102040000CF7BE438F6807FA0CF73743C7600E7969
:1020500006F00306022E10D1D60800EB8608D8F849
:10206000206057074FEAD76C09FA0CF7BE430F6997
:1020700007FA0CF73743C8F8207006684FEA420C9D
:1020800005FA0CF7BE430F7907F0030707FA0CF7C0
:10209000374307604E6816F4403F6BD0394E3768BF
:1020A00047F480473760366822F0030706F480461D
:1020B0000096354E07EB060CDCF8086897074FEAE8
:1020C000177809FA08F7BE43304FB84202D100270B
:1020D0001FE04FE02E4FB84201D1012719E02D4FEC
:1020E000B84201D1022714E02B4FB84201D1032797
:1020F0000FE02A4FB84201D104270AE0284FB84226
:1021000001D1052705E0274FB84201D1062700E09D
:10211000072707FA08F73743CCF80878DAF80060A1
:102120005746D1F804C09E435FEACC3C00D51E431D
:102130003E60DBF800605F46D1F804C09E435FEA72
:102140008C3C00D51E433E60DEF800607746D1F837
:1021500004C09E435FEACC2C00D51E433E60084F6E
:102160000C373E68D1F804C09E435FEA8C2C00D542
:102170001E433E60521C102AFFF436AFBDE8F88FB4
:10218000003C014044380240003001400000024061
:102190000004024000080240000C0240001002400F
:1021A00000140240001802400069084000D00120DD
:1021B00070470AB1816170470904FBE701488068F4
:1021C0007047000004000020024881680278114432
:1021D00081607047040000200B4810B5016841F48D
:1021E00000710160016841F480610160016841F49F
:1021F00080710160032000F071F8002000F006F803
:1022000000F024F8002010BD003C024070B50D4DD8
:1022100004464FF47A712878B1FBF0F00A49096856
:10222000B1FBF0F000F074FB48B9102C07D200228B
:102230002146501E00F032F800206C6070BD012075
:1022400070BD000004000020100000200B4882B088
:10225000016841F480410160006800F48040009012
:102260000648001F016841F080510160006800F0DD
:1022700080500090072002B000F030B8443802408F
:10228000002809DB00F01F02012191404009800075
:1022900000F1E020C0F8001170470000F0B40E4BD0
:1022A0001B680C46C3F30223C3F10705042D00D9B4
:1022B0000425191D072901D2002300E0DB1E012699
:1022C00006FA05F1491E214099409E40761E1640AF
:1022D0003143F0BC01F055B80CED00E0064900F0C8
:1022E000070208684FF6FF03184040EA0220034A3D
:1022F00010430860704700000CED00E00000FA0594
:102300002DE9F8431748016841F0805101600068E9
:10231000154F00F08050012600903E64FFF74EFFFD
:1023200005464FF47A78114C05E000BFFFF746FFF1
:10233000401B40450DD86068C003F7D57E64FFF7A9
:102340003DFF0546464607E0FFF738FF401BB04219
:1023500002D90320BDE8F88360688003F4D500202B
:10236000F8E700004038024000000E4200700040D4
:102370002DE9F0470E46050065D0DFF81481D8F846
:102380000000F7B200F00F00B04207D288F80070EA
:10239000D8F8000000F00F00B04254D128683D4C3E
:1023A000810712D5400703D5206840F4E050206033
:1023B0002878000703D5206840F46040206020683A
:1023C000A96820F0F000084320602878C0072DD0CD
:1023D000304968680839012812D0022813D0032830
:1023E00011D00968890700292DDA216821F003013D
:1023F00001432160FFF7E2FE814641F2883A0EE098
:1024000009688903EFE709688901ECE7FFF7D6FE61
:10241000A0EB0901514502D90320BDE8F0872068EF
:10242000696800F00C00B0EB810FEFD1D8F8001014
:10243000404601F00F01B14207D90770006800F073
:102440000F00B04201D00120E7E72878400705D50A
:102450002068E96820F4E0500843206028780007ED
:1024600006D52068296920F4604040EAC100206058
:1024700000F038F82168084AC1F30311515CC840E4
:102480000649086006480068FFF7C0FE0020C4E760
:10249000003C024008380240F242000810000020D0
:1024A000080000200448054900680968044AC1F38F
:1024B0008221515CC840704710000020083802405B
:1024C000024300080448054900680968044AC1F34A
:1024D0004231515CC840704710000020083802406B
:1024E00002430008224810B5006810F00C02214891
:1024F00015D04110042A11D01D4C241F082A0FD0DA
:102500000C2A0CD12268236802F03F025B0221D51D
:102510002068C0F38810A0FB010120E0084610BD30
:102520002268236802F03F025B0205D52068C0F3F1
:102530008810A0FB010104E02168C1F38811A1FB10
:1025400000010023FDF7C0FE2168C1F30141491CD1
:1025500049000AE02168C1F38811A1FB00010023B2
:10256000FDF7B2FE2168C1F30271B0FBF1F010BDBE
:10257000083802400024F4002DE9F84F04007DD013
:10258000DFF878B32078ABF10407C007A7F10405A2
:1025900050D0DBF800105846C1F3810101290FD05B
:1025A0000168C1F38101022902D13968490207D4C7
:1025B0000068C0F38100032809D13868400206D5BD
:1025C0002868800336D560680028D8D032E060687B
:1025D000B0F5803F10D0B0F5A02F286810D020F4BF
:1025E00080302860286820F4802028606068A0B1CE
:1025F000FFF7E4FD06460CE0286840F48030F4E77D
:1026000040F480202860F7E7FFF7D8FD801B64289E
:1026100076D828688003F7D50CE0FFF7CFFD064693
:1026200005E000BFFFF7CAFD801B6428F0D82868CA
:102630008003F7D42078DFF8C89280074FF0000AB3
:1026400044D5DBF80010584611F00C0F0FD001688C
:10265000C1F38101022902D13968490207D5006816
:10266000C0F3810003280AD13868400207D42868E3
:10267000800715D5E068012800D111E03AE1E06853
:10268000B0B10120C9F80000FFF798FD064604E04C
:10269000FFF794FD801B0228BAD828688007F7D579
:1026A0002868216920F0F80040EAC10028600DE0A8
:1026B000C9F800A0FFF782FD064604E0FFF77EFDA3
:1026C000801B02281CD828688007F7D420780007D0
:1026D00027D5DFF828828B48616908F16C0881B141
:1026E00001210160FFF76AFD064604E0FFF766FD81
:1026F000801B022804D8D8F800008007F6D510E027
:1027000089E0C0F800A0FFF759FD064605E000BFCC
:10271000FFF754FD801B02287DD8D8F80000800701
:10272000F6D42078400769D574484FF00008383057
:102730000068C0000BD471483830016841F0805106
:10274000016000684FF0010800F0805000906E4E6C
:102750003068C00511D4306840F480703060FFF7F5
:102760002DFD009006E000BFFFF728FD0099401AFC
:10277000022850D83068C005F6D5604EA06868368B
:1027800001280FD00528306810D020F001003060FB
:10279000306820F004003060A068B8B1FFF70EFD8B
:1027A00000900FE0306840F00100F4E740F00400D2
:1027B0003060F7E7FFF702FD0099411A41F28830D7
:1027C000814264D830688007F4D50EE0FFF7F6FC4C
:1027D000009007E0FFF7F2FC0099411A41F28830BF
:1027E000814254D830688007F4D4B8F1000F05D086
:1027F00042483830016821F080510160A069A8B3D7
:10280000DBF80010C1F38101022947D00228C9F882
:1028100060A005D000E03AE0FFF7D0FC044639E0C4
:10282000FFF7CCFC064604E0FFF7C8FC801B02283B
:102830002DD828688001F7D4F4E907010843E1683E
:10284000324A490802EB0141A26841EA8211084379
:10285000217C40EA0160217D40EA0170386001205E
:10286000C9F86000FFF7AAFC044606E044E000BF98
:10287000FFF7A4FC001B022809D828688001F7D5BF
:102880003AE000BFFFF79AFC001B022802D90320A0
:10289000BDE8F88F28688001F4D42DE00128F7D036
:1028A0003868E26900F48001914223D1226A00F085
:1028B0003F0191421ED147F6C071626A0140B1EBFF
:1028C000821F17D1A26A4FF0FF3300F4403103EBAF
:1028D0005202B1EB024F0DD194F82C2000F0706140
:1028E000B1EB026F06D194F8301000F0E040B0EB8D
:1028F000017F01D00120CBE70020C9E70838024062
:1029000000004742800E4742007000400000FFFF79
:1029100010B5401EB0F1807F01D3012010BD4FF0F3
:10292000E02460610F21601700F02BFD0020A06102
:1029300007202061002010BD70477047F8B501687E
:1029400004460868CA684B6910F00F0F4FF0000585
:1029500059D003F0010602F49077374365D0C107E0
:1029600005D0D10503D5216C41F001012164410757
:1029700005D5D90703D0216C41F0020121648107FC
:1029800005D5D90703D0216C41F00401216401076A
:1029900007D502F02001314303D0216C41F008013A
:1029A0002164216C00293AD0800604D5900602D516
:1029B000204600F0B0FB20684069216CC0F3801015
:1029C000090700D460B3204600F07EFB2068406910
:1029D000400621D52068143050E8001F21F0400146
:1029E00040E80012002AF5D1A06BA8B16C4901653E
:1029F000A06BFFF7CCFA002811D0A06B016D01B0DD
:102A0000BDE8F040084783060FD593060DD5204654
:102A1000BDE8F84000F07FBB2046FFF78EFFF8BD11
:102A20002046FFF78AFF2564F8BD266B2023012E80
:102A300079D1C60677D5D60675D50868486800905E
:102A40004869400640D5A16B086840680004000C46
:102A5000EAD0A28D8242E7D9E085C869B0F5807FCF
:102A60002DD020680C3050E8001F21F4807140E820
:102A70000012002AF5D12068143050E8001F21F020
:102A8000010140E80012002AF5D12068143050E816
:102A9000001F21F0400140E80012002AF5D184F81F
:102AA0003E30256320680C3050E8001F21F01001F3
:102AB00040E80012002AF5D1A06BFFF71FFAA08DA5
:102AC000E18D401A81B229E0A08DE18D401A81B2DA
:102AD000E08D0028A8D00029A6D020680C3050E84E
:102AE000002F22F4907240E80026002EF5D12068D5
:102AF000143050E8002F22F0010240E80026002E9A
:102B0000F5D184F83E30256320680C3050E8002F62
:102B100022F0100240E80023002BF5D12046FFF7F9
:102B20000BFFF8BDFFE705062BD5150629D594F850
:102B30003D002128F5D1A068B0F5805F01D1206962
:102B4000B0B1206A411C2162216800784860E08CA5
:102B5000401E0004000CE084E3D12068C16821F02D
:102B60008001C1602068C16841F04001C160D8E7C0
:102B7000206A0088C0F308004860206A801C206238
:102B8000E5E74006CDD55006CBD5CA68204622F0F1
:102B90004002CA6084F83D3000F0FBF8C1E7000055
:102BA000B930000870B5040004D094F83D00002549
:102BB00010B106E0012070BD84F83C50204600F0C2
:102BC00023F8242084F83D002068C16821F40051D6
:102BD000C160204600F000FB2068016921F49041AB
:102BE00001612068416921F02A0141612068C168C2
:102BF00041F40051C1602564202084F83D0084F830
:102C00003E00002070BD0000F0B587B004461421DE
:102C10006846FDF715FD2A4F236800222949022442
:102C2000032507262848BB4221D1264B14331F68B1
:102C300047F010071F601B6803F0100305930B6833
:102C400043F001030B60096802AB01F0010105913B
:102C50006902CDE9001483E864006946FFF7B6F91C
:102C6000002211462520FFF719FB252023E0174FEE
:102C7000BB4222D1134B10331F6847F400371F604B
:102C80001B6803F4003305930B6843F001030B60EA
:102C9000096802AB01F0010105910C21CDE9001496
:102CA00083E864006946FFF791F900221146262067
:102CB000FFF7F4FA2620FFF7E3FA07B0F0BD0000B3
:102CC0000010014030380240000002400044004043
:102CD0002DE9F84F044690F83E009A4616460D46F8
:102CE000202853D1FDB1F6B194F83C0001284DD015
:102CF000012084F83C0000272764222084F83E004D
:102D00002763FFF75BFAA6858146E685A0684FF446
:102D10008058404501D1206940B12E465FF0000542
:102D200084F83C7027E00120BDE8F88F0026F7E723
:102D30004B46002220212046CDF800A000F0D2FA18
:102D400008B10320F0E726B1A06840451BD038B198
:102D500008E020684068C0F3080025F8020B07E08F
:102D6000206980B12068406800F07F0006F8010B00
:102D7000E08D401EE085E08D0028D9D1202084F828
:102D80003E000020D0E720684068EFE70220CBE754
:102D900070477047FEE7000030B587B014216846E1
:102DA000FDF74EFC1F480024016841F0040101605A
:102DB000016801F004010591016841F080010160A2
:102DC000016801F080010591016841F00101016095
:102DD0000068154D00F001000590002220212846D2
:102DE000FFF7E7F94FF4005000904FF48810CDE959
:102DF000010469460D48FFF7E9F820200090012002
:102E0000CDE90104694628460394FFF7DFF8002264
:102E100011462820FFF742FA2820FFF731FA07B0C1
:102E200030BD00003038024000000240000802407F
:102E300010B50E4C0C480C2120604FF41650606009
:102E40000020A060E060C4E90401A061E0612046C8
:102E5000FFF7A8FE08B172B6FEE72068C16841F02E
:102E60002001C16010BD00000010014018000020CA
:102E7000FEE7000070B504462DED0C8B90ED04AB21
:102E800090ED029B90F8290045287CD194F8280009
:102E9000532878D19FED4F8B51EC1A0B53EC182B24
:102EA00000F05CFD00F0EEFE00F01BFF41EC1D0B9E
:102EB00053EC182B00F068FF0E4646EC100B05464D
:102EC00053EC1A2B51EC100B01F092F800F0DAFEE3
:102ED00000F007FF46EC105B41EC1B0B53EC1A2B88
:102EE00051EC100B01F084F853EC1B2B01F08CF823
:102EF00053EC182B00F048FF9FED381B53EC112BBF
:102F000000F042FF9FED37CB41EC1A0B53EC1C2B2A
:102F100051EC1B0B00F038FF53EC1D2B00F062FC52
:102F200053EC1A2B00F05EFCC4E9040153EC182B9F
:102F300051EC190B00F012FD00F0A4FE00F0D1FEE0
:102F400041EC1A0B53EC182B00F01EFF0E4646EC1A
:102F5000100B054653EC192B51EC100B01F048F8FF
:102F600000F090FE00F0BDFE46EC105B41EC180B4B
:102F700053EC192B51EC100B01F03AF853EC182BD1
:102F800001F042F800E021E09FED181B53EC112BFB
:102F900000F0FAFE41EC190B53EC1C2B51EC180B12
:102FA00000F0F2FE53EC1A2B00F01CFC9FED110B0D
:102FB00041EC180B53EC102B51EC190B00F0E4FE14
:102FC00053EC182B01F020F8C4E90201BDEC0C8B86
:102FD00070BD00000000000000005940AB49D978E6
:102FE0005634323F11BA1F111111913F00000000F9
:102FF00000002440AB49D978563432BFFEE7704711
:103000007047FFF7E1B8000030B593B0342168464F
:10301000FDF716FB14210DA8FDF712FB2048002533
:10302000016841F080510160006800F0805012900A
:103030001C48016841F4404101600068022400F42A
:103040004040129001200090000401908001CDE9E1
:10305000064004200890B420CDE909040B9468468A
:103060000C94FFF789FA08B172B6FEE7FFF748F94A
:1030700008B172B6FEE70DA90F2081E831004FF4C8
:10308000A05010904FF48050119005210DA8FFF72B
:103090006FF9002801D072B6FEE713B030BD000012
:1030A00040380240007000400248016841F470015D
:1030B0000160704788ED00E010B5806B0021C1858C
:1030C000C184FFF73AFC10BD01680C3151E8002FB4
:1030D00022F4907241E80023002BF5D101681431ED
:1030E00051E8002F22F0010241E80023002BF5D126
:1030F000016B012909D101680C3151E8002F22F040
:10310000100241E80023002BF5D1202180F83E1069
:1031100000210163704708B590F83E10222901D0C4
:10312000022008BD82684FF480539A4201D10169A0
:1031300021B1816A9A421BD04AB10AE00268816AD1
:103140005268C2F308020A80816A891C08E0026999
:1031500072B10268526802F07F020A70816A491CEB
:103160008162C18D491E0904090CC18503D019E093
:1031700002685268F1E70168CA6822F02002CA605A
:103180000168CA6822F48072CA6001684A6922F044
:1031900001024A61202180F83E10016B012903D011
:1031A000FFF7F6FD002008BD0021016301680C3126
:1031B00051E8002F22F0100241E80023002BF5D146
:1031C00001680A68D20602D50A6849680091818DB3
:1031D000FFF7B2FBE6E7000070B50446006801693E
:1031E000E26821F44051114301612169A068E2695C
:1031F00008436169114308432168CA6849F20C63B6
:103200009A430243CA6020684169A26921F440716F
:103210001143416131492068884202D030498842D7
:1032200002D1FFF74FF901E0FFF73CF9E269002313
:10323000192164253226B2F5004F626828D0A0FB20
:103240000101930F9200FDF73FF80146B0FBF5F046
:103250006FF01802504301EB800006EB0010B0FB4A
:10326000F5F000F0F002B1FBF5F002EB0012B1FB5B
:10327000F5F06FF01803584301EB800006EB0010E7
:10328000B0FBF5F000F00F0021681044886070BDBD
:10329000A0FB010192185B41FDF716F80146B0FB57
:1032A000F5F00201B1FBF5F06FF01803584301EBA4
:1032B000800006EBC000B0FBF5F000F0F80002EB78
:1032C0004002B1FBF5F0584301EB800006EBC00073
:1032D000B0FBF5F000F00700D6E700000010014059
:1032E000001401402DE9F041984617460E46044669
:1032F000069D27E0681C25D02DB1FEF75FFFA0EBEF
:103300000800A8421ED920680C3050E8001F21F4A4
:10331000D07140E80012002AF5D12068143050E83E
:10332000001F21F0010140E80012002AF5D1202001
:1033300084F83D0084F83E00002084F83C0003201F
:10334000BDE8F0812068006836EA000004D0002063
:10335000B842CFD00020F3E70120F9E710B50348C9
:10336000FFF7ECFA02490120086010BD18000020A8
:10337000000000200148FFF7E1BA00005C000020D7
:10338000FEE70907090E002804DB00F1E02080F8C1
:103390000014704700F00F0000F1E02080F8141DC9
:1033A000704700000000000030B52DED048B81B0A7
:1033B000B0EE408AF0EE608A6A4651EC180B00F0DD
:1033C00013F900989FED329B7E300090002821DC9D
:1033D00053EC192B51EC180B00F018FC1AD00021FB
:1033E00040F608004FF00000044651EC180B00F0C6
:1033F000C7F908EE100A40F6080004EA00014FF091
:103400000000B5EEC08AF1EE10FA04BF0220FDF70D
:103410009CFE2DE00098FF2830DB002108464FF08D
:10342000000000F4400553EC192B51EC180B00F090
:10343000A9FD8CBF002401240220FDF786FE9FED2C
:10344000168A4DB1002C0CBF4FF400004FF48000E1
:10345000A84218BF9FED118A042108464FF00000D2
:10346000002C01BFB1EE480A01B0BDEC048B30BDA9
:10347000B0EE480A01B0BDEC048B30BD51EC180B26
:1034800000F07EF901B000EE100ABDEC048B30BDF7
:1034900000000000000000000000807FFFFF7F7F31
:1034A00030B540F2FF742DED048BF0EE608A18EE1B
:1034B000901A85B0B0EE408A9FED2B9B05468DEDAE
:1034C000008B34EA115147D053EC192B51EC180BF7
:1034D00000F09CFB40D02A4651EC180B00F0BDFEDA
:1034E00041EC180B18EE900A8DED008B34EA105069
:1034F0001CD053EC192B51EC180B00F087FB2BD18F
:103500000220FDF722FE00F043F810EE901A18EEAC
:10351000900A8DED020B8DED008B61F31E00039080
:103520009DED020B05B0BDEC048B30BD0220FDF714
:103530000CFE00F01DF810EE901A18EE900A8DEDBA
:10354000020B8DED008B61F31E0003909DED020BCD
:1035500005B0BDEC048B30BD05B0B0EE480AF0EE0E
:10356000680ABDEC048B30BD0000000000000000C4
:103570009FED050B10B553EC102B51EC100B00F028
:1035800003FC41EC100B10BD0000000000000070B7
:103590009FED050B10B553EC102B51EC100B00F008
:1035A000F3FB41EC100B10BD000000000000001008
:1035B00010B5044691ED000BFFF7F6FE84ED000A0E
:1035C00010BD10B5044690ED000B0846FFF768FFEC
:1035D00084ED000B10BD30380A2801D2012070475D
:1035E000002070470000000010B582B01446CDE9FD
:1035F00000010023009A2360194B21F000409842FB
:103600002ADA024328D0B0F5801FA8BF226810DA5A
:103610009FED150B53EC102B9DED000B51EC100B97
:1036200000F0B2FBCDE900016FF0350221F000405F
:1036300022600F4B6FF31E5103EB205010442060AB
:1036400041F0FF5040F0005001909DED000B00BF95
:1036500002B051EC100B10BD9DED000BF8E700001F
:103660000000F07F00000000000000000000504358
:1036700002FCFFFFFEF7B0FDFFF7C6FCFFF78CFB77
:10368000FFF7D6FB264825490C2201604FF416515E
:10369000416000218160C160C0E904128161C161A3
:1036A000FFF780FA08B172B6FEE71D4926224439B9
:1036B00001F58D60FCF792FF194C443CE08C04F15D
:1036C0008805A5F80604A16A04F590600161A18D42
:1036D0008182E08DA5F80E04206BC5F8100404F17A
:1036E0003401092201F58D6005F58165FCF776FF4F
:1036F00094F83D00687594F83E00A875206CA861A8
:10370000084C4FF4005506484430FEF78BFB294621
:103710002046FEF749FD0028F9D0F4E700440040B8
:103720005C0000200008024010B500290AD008788B
:10373000002807D005487844FDF742FF002801D053
:10374000002010BD0248784410BD00009A0C000013
:10375000920C000010B500290AD00878002807D084
:1037600005487844FDF72CFF002801D0002010BD4B
:103770000248784410BD00008A0C0000820C000052
:1037800021F00042A2F16052B2F5801F01F0004327
:1037900028BFD2F17F6C0BD95FEA001C43EAC2025A
:1037A00042EB507018BF704728BF20F001007047EF
:1037B000B2F5801FBCBF184670474FEA410C1CF59C
:1037C000001F02D2084600F00EBD70B500F086FB67
:1037D00000000089FFF7F6BF4FF00040A0F5800021
:1037E0007047000010B591EA030F48BF83F0004313
:1037F00000F11284841A71EB030C05D2121943EB09
:103800000C03001B61EB0C01DFF824E14FEA1154BB
:10381000A4EB135C1EEA430F18BF9EEA445F73D00B
:1038200023EA0E03DCF1200E21EA045143F4801355
:1038300032D322FA0CFE10EB0E0023FA0CFE41EB01
:103840000E01CCF1200E03FA0EFE10EB0E0051F12A
:103850000001B1F5801FCCF1200E32D201EB0451F2
:1038600012FA0EF2BDE8104058BF7047401C38BF36
:103870005FEA420218BF7047002814BF20F0010021
:1038800041F100014FEA410313F5001F38BF7047B3
:10389000A1F1C04100F070BB012A43EB0302ACF17F
:1038A000200CDCF11F0E32BF4FF0000E23FA0CF398
:1038B00010EB030041EB0451B4EB115FD0D0A1EB4E
:1038C000045101F5801149085FEA300001EB045111
:1038D0000ED350F1000038BF12FA0EFE08D1BDE839
:1038E0001040C9E7401C38BF5FEA4202CAD1C3E7B3
:1038F000BDE810404FEA410313F5001F38BF704781
:10390000A1F1C04100F038BB9EEA445F08D011EA43
:103910005E0FBDE8104004BF01F000410020704779
:10392000BDE8104070B500F0D9FA00BF64FBBE3EA0
:103930000000E0FF02494FF0000000F05CBC00BF57
:103940000000F87F491058BFC1F140415B1058BFDB
:10395000C3F140438B42EFF3008070472DE9C04133
:1039600030B4DFF8A0C23CEA111418BF3CEA1314CB
:1039700000F0EC8081EA03051CEA111444EAD574D6
:1039800018BF1CEA131500F0C780A4EB05044FF024
:10399000004545EAC12145EAC32341EA505143EAC3
:1039A000525304F17F74994204F500344FEAC02069
:1039B0004FEAC22208BF904200F09C804FEA136594
:1039C0000FF24016765D4FEA134506FB05F7C7F187
:1039D000807706FB07F74FEAD737A7FB03687642E5
:1039E000C8F58038A7FB06CE38BFA8F1010807FB51
:1039F00008E64FF0000EA6FB028CE6FB03CEDCF1DE
:103A0000000CCEF1004E38BFAEF1010EA6FB0C58F3
:103A10004FF000074FF00005E6FB0E87A1FB08C63C
:103A2000A0FB07CE16EB0E0645F10005E1FB07658E
:103A300015F1E04E7EBFA4F580345FEA46066D4185
:103A400016F1800745F100054FEA17274FEA066691
:103A500047EA0567A6F1DE46B6F1805F4FEA152515
:103A60001FD9384624F0010C05EBC471BCF1FE6F80
:103A700001EB0C1102D8F0BCBDE8008124425CBF10
:103A800001F5801E9EEAC47F02D4F0BCBDE800812F
:103A9000244238D4F0BCA1F1C041BDE8004100F09F
:103AA0006BBA4FEAD22242EA43524FEAD323A7FB32
:103AB00002864FEAD02040EA415007FB03661EEA27
:103AC0000E0F4FEAD12105FB026658BFA6EB005648
:103AD000B6EB00564FEA520E4EEAC37E18EB0E0EBE
:103AE00056EB530EBDD518EB02085E417F1C55F115
:103AF0000005B6E74FF480154FF000074FF00006C1
:103B00004FF00008ADE7F0BC4FF0000001F1C041FC
:103B100001F00041BDE8008111EA0C1F0CEA131509
:103B200000D00CE013EA0C1F00F025804FF00000DD
:103B3000F0BC81EA030101F00041BDE80081F0BC66
:103B4000BDE8004181EA030100F016BAF0BCBDE80F
:103B5000004170B500F0C2F9097EFC3E00F007B8E4
:103B600081EA03014FF0000001F00041704781EA53
:103B7000030100F001BAF0BCBDE800414FF00000C5
:103B800021497047FFFDFBF9F7F5F4F2F0EEEDEB9C
:103B9000E9E8E6E4E3E1E0DEDDDBDAD8D7D5D4D34B
:103BA000D1D0CFCDCCCBCAC8C7C6C5C4C2C1C0BF97
:103BB000BEBDBCBBBAB9B8B7B6B5B4B3B2B1B0AF9D
:103BC000AEADACABAAA9A8A8A7A6A5A4A3A3A2A181
:103BD000A09F9F9E9D9C9C9B9A999998979796953C
:103BE00095949393929191908F8F8E8E8D8C8C8BD8
:103BF0008B8A898988888787868585848483838260
:103C0000828181800000FF070000F87F51EA030CE9
:103C100017D41CF5801F58BFBCF5801F00F106802B
:103C2000994218BF704708BF9042704707D711F5F7
:103C3000801F58BF13F5801F19D4994270478942DD
:103C400070471CF5801F08D5BCF5801FF7D58B4247
:103C500018BF704708BF824270474FF4001C1CEB2E
:103C6000410F38BF1CEB430F01D28B42704770B538
:103C700000F034F9922449004FF000514FF0805386
:103C8000FFF760BE4FEA41034FEA5353A3F5806349
:103C9000D3F11E03C8BFD3F1210C0CDD4FF000425D
:103CA00042EAC12242EA505232FA03FC8CEAE17C39
:103CB000ACEBE1707047102BC4BF0020704703F5D8
:103CC000787CBCF1FF3F04D06FF0004282EA210013
:103CD000704770B500F002F94992248000207047C7
:103CE000F2E710F0004248BF4042B0FA80F310FA09
:103CF00003F10AD0C3F11D0303F580634FEA41507D
:103D000002EB035202EBD12170474FF000007047E5
:103D100051EA030C17D41CF5801F58BFBCF5801F57
:103D200000F10680994218BF704708BF9042704763
:103D300007D711F5801F58BF13F5801F19D499427A
:103D40007047894270471CF5801F08D5BCF5801F5D
:103D5000F7D58B4218BF704708BF824270474FF4B7
:103D6000001C1CEB410F38BF1CEB430F01D28B42F0
:103D7000704770B500F0B2F8922449004FF000513E
:103D80004FF08053FFF7DEBDDFF848C170B51CEA85
:103D9000111E1EBF1CEA13159EEA0C0F95EA0C0FAC
:103DA00000F06F8081EA030423EA4C134EEAD47ECC
:103DB00021EA4C1141F4801143F48013AE44A1FB7D
:103DC000024CA0FB0365AEF17F7E361955EB0C0566
:103DD000A1FB034C4CF10003A0FB021C16EB0C06EC
:103DE000654153F10003094218BF46F0010613F480
:103DF000007F0BD14FEA03314FEA0530340341EA2B
:103E0000155140EA16506FF003020AE04FEAC32151
:103E10004FEAC520F40241EA555140EA56506FF08E
:103E2000020202EB2E4201EB025585EACE710AD066
:103E30005FEA440C18BF24F0004450F1000041F147
:103E4000000120EAD47040F2FE7C624500D270BDD1
:103E5000A84214BF4FF080444FF04044002E08BFEA
:103E60000024BEF1806FA8BFA1F1C041BDE8704041
:103E700080F282804FF0000001F1C04101F000416A
:103E800070479EEA0C0F0CEA131518BF95EA0C0F49
:103E900006D04FF0000081EA030E0EF0004170BD25
:103EA00000F01CF88900013E00F007B800F009B8E6
:103EB0004FEA430C5FEA5C5C08D081EA030100F042
:103EC0005BB84FEA410C5FEA5C5CF6D14FF0000052
:103ED000014970470000FF070000F87F0EF1020E55
:103EE0002EF0030E5EF8046B364205D4012A43EB34
:103EF000030515F5001F12D8012841EB010C1CF534
:103F0000001F0CD80ED14FEAD17C15F5001F0CEB29
:103F10004C0C0CF1020C08BF4CEBD37C04E04FF0CE
:103F2000080C01E04FEAD37C0CEB4C0526FA05F6B1
:103F300006F00706B6F1040C06D20EEB860CBDE8BF
:103F400070404CF0010C6047DFE80CF0090B0202F6
:103F50004FF000414FF00000A1F5002170BD19465F
:103F60001046012851EB010418BFD4F5001484BF9A
:103F7000002001F0004170BD0808A0F500114FEAD3
:103F80003101704753EA010C17D41CF5801F58BF4C
:103F9000BCF5801F00F106808B4218BF704708BF38
:103FA0008242704707D713F5801F58BF11F5801F55
:103FB00019D48B4270479B4270471CF5801F08D56F
:103FC000BCF5801FF7D5994218BF704708BF9042D3
:103FD00070474FF4001C1CEB430F38BF1CEB410F24
:103FE00001D2994270470FB40CBC03BCFFF7C1BEAD
:103FF00091EA030F10B581F000413FF5FBAB83F070
:10400000004300F009B8000010B591EA030F48BF63
:1040100083F000433FF5EEAB841A71EB030C07D23B
:1040200012198CF0004C43EB0C03001B61EB0C01EC
:10403000DFF8A4E14FEA1154A4EB135C1EEA430F2E
:1040400018BF9EEA445F00F0B08023EA6E0352423C
:1040500021EA0451C3EB6E0338BF5B1EDCF1200E76
:1040600025D322FA0CFE10EB0E0043FA0CFE41EBB6
:104070000E01CCF1200E03FA0EFE10EB0E0051F1F2
:104080000001CCF1200E29D412FA0EF201EB0451FA
:10409000BDE8104058BF7047401C1CBFB2F1004F34
:1040A000704700280CBF491C20F00100704712EB3C
:1040B000020E43EB030218BF4FF0010E4EEA42021C
:1040C000ACF1200CDCF11E0E54D943FA0CFE10EBBF
:1040D0000E0051F1FF31CCF11E0ED5D50EF1010EBF
:1040E00012FA0EFE404141EB010101EB445C5FEA34
:1040F0005C5C10D910EBDE7001EB045138BFBEF1EF
:10410000004FBDE8104018BF704700280CBF491C85
:1041100020F00100704730D24FEAD42C11F5001185
:1041200024F400641BD0B1FA81F20B3AA41AA41E45
:10413000D2F12003914030FA03F31943904001EB90
:10414000CC71002C01EB0451BDE81040A8BF7047B2
:1041500001F1C0414FF0000001F000417047B0FA9A
:1041600080F310FA03F100D110BDE41A173C4805A2
:10417000C90AE4E701EB045110BD491001EB0451F9
:10418000BDE810404FEA300002E04FF000017047F8
:104190004A0008BF0042F8D0B2F5001F28BF7047A0
:1041A00001F000414FF0000070479EEA445F07D0E5
:1041B00011EA5E0FBDE8104004BF002100207047E7
:1041C000BDE8104070B5FFF789FE00BF40DFF63E46
:1041D00083F00041104670470000E0FF4FF0407050
:1041E000E1EE100A7047FF2141EAD050C005704748
:1041F0004FF0000070470CF00F03092B08BF082098
:1042000000F05F800A2B0BD0082B18BF704708BF47
:104210001CF0400F0AD04FF000004FF00001704733
:104220001CF0400F18BF4FF0004070471CF0100FFB
:1042300008D020F0704300F07F4242EAD3014FEAF9
:104240004370704700F0604021F07F4242EA000274
:1042500001F07F4040EA727070474FF0FF0C4CF461
:10426000E06C1CEA11531CBF9CEA030C9445C2BFCE
:10427000DA4201EB02517047002B0DD0BCF1000F68
:104280000FD0002A01F00041A4BF41F0E04141F00D
:104290007F614FF00000704701F000414FF00000D7
:1042A000704750EA01334FF09B0C18BF4CF0806C04
:1042B0007FF440AB7047FCF747BBFCF74DBFFDF701
:1042C000DBB81CF4801F11D01CF4E02F03D06FEA80
:1042D000CC31490070474FF04050EFF3008222F09C
:1042E000704242EA000282F3008870474FF00000FB
:1042F00070470000000000000000010203040607F0
:104300000809000000000102030400000240000050
:10431000000000A00000000005400000000000C8F0
:10432000000000000C4000000000409C0000000065
:10433000194000000020BCBE000000003440000016
:10434000BFC91B8E00000004B5400000504BCFD009
:104350006607E2CF010000006C4100003E8251AAD6
:10436000DFEEA73401000000D9420000DCB5A0E276
:104370003A301F97FFFFFFFFB4450000FD25A0C89E
:10438000E9A3C14FFFFFFFFFFF3F000000000080D7
:1043900000000000FF3F000000000080000000005F
:1043A000FC44000800000020140000000002000887
:1043B0001045000814000020140B00001C02000827
:1043C000000000000000F07FFFFFFFFFFFFFEF7F16
:1043D0001C00000043000000F8FFFFFF0C0000007D
:1043E0000E0000000F0000002E0000001001000071
:1043F00043000000F8FFFFFF0040404040404040C5
:1044000040404141414141404040404040404040A7
:10441000404040404040404040050202020202024B
:10442000020202020202020202202020202020209A
:1044300020202002020202020202909090909090AE
:10444000101010101010101010101010101010106C
:1044500010101010020202020202888888888888E0
:1044600008080808080808080808080808080808CC
:1044700008080808020202024000000000000000D4
:10448000000000000000000000000000000000002C
:10449000000000000000000000000000000000001C
:1044A000000000000000000000000000000000000C
:1044B00000000000000000000000000000000000FC
:1044C00000000000000000000000000000000000EC
:1044D00000000000000000000000000000000000DC
:1044E00000000000000000000000000000000000CC
:1044F00000000000000000000000000000000000BC
:104500000100000010000000000000000024F40082
:04000005080001C529
:00000001FF
